:100000000C94F3100C9482C60C94ADC60C94D8C614
:100010000C9403C70C942EC70C9459C70C9484C736
:100020000C94AFC70C9424110C9424110C9424113B
:100030000C9424110C94A6CF0C9424110C9424112C
:100040000C9424110C94C98B0C9424110C9424113D
:100050000C9424110C9424110C9451980C94DAC72C
:100060000C9424110C9426110C9424110C9424113A
:100070000C9424110C9424110C9424110C9424112C
:100080000C9424110C9424110C9424110C9424111C
:100090000C9424110C9424110C9424110C9424110C
:1000A0000C9424110C9424110C9424110C942411FC
:1000B0000C9424110C9424110C9424110C942411EC
:1000C0000C9424110C9424110C9424110C942411DC
:1000D0000C9424110C9424110C94094A0C94474A52
:1000E0000C942411D331F3310B3239325B329B3211
:1000F0002A335D33033467349C34B9347836CB34D7
:10010000D534DF34E934FA34223548356635AC3538
:10011000E835F235FC350636103678362C3678362A
:1001200078367836783635362C973C975B976B97D0
:1001300086978B978E97939796979B979E97A39763
:10014000AD975CC626C62EC63AC647C668C675C6F3
:100150001BC920C925C92FC939C9B2C943C94BC94F
:1001600053C95DC967C971C980C98AC9B2C994C96F
:100170009EC9A8C9D4C9D7C9C6C9CAC9D0C90ECAD7
:10018000DBC9DFC9E5C9E9C9EDC9F3C9F7C9FBC9CD
:100190000ECA01CA05CA09CA084AD73B3BCE016E3E
:1001A00084BCBFFDC12F3D6C74319ABD56833DDACE
:1001B0003D00C77F11BED9E4BB4C3E916BAAAABEDD
:1001C000000000803F05A84CCDB2D44EB93836A906
:1001D000020C50B9918688083CA6AAAA2ABE000043
:1001E00000803F004A313800446F6E6520736176AD
:1001F000696E672066696C652E0A004D32390020F1
:1002000020506C616E6E65724275666665724279E9
:100210007465733A20002046726565204D656D6FE8
:1002200072793A2000436F6D70696C65643A204DB5
:10023000617220313520323031380A00207C204173
:100240007574686F723A20284A6F6C6C792C20782C
:10025000787878787878782E434F2E290A003230D3
:1002600031362D31322D30362031323A30300020C7
:100270004C61737420557064617465643A20003178
:100280002E312E302D5243380A0056312E312E3267
:100290000A0020536F66747761726520526573653A
:1002A000740A00205761746368646F672052657335
:1002B00065740A002042726F776E206F7574205249
:1002C000657365740A002045787465726E616C20F0
:1002D00052657365740A00506F77657255700A0035
:1002E0004A3132004A31370073746172740A005027
:1002F00072696E7465722068616C7465642E206B1F
:10030000696C6C28292063616C6C6564210A004B60
:10031000494C4C45442E20004B494C4C45442E2022
:100320000020746F6F206C6F6E6720657874727533
:1003300073696F6E2070726576656E7465640A000D
:1003400020636F6C6420657874727573696F6E20BA
:1003500070726576656E7465640A006F6B00526535
:1003600073656E643A20004F66667365747320612E
:1003700070706C696564004572723A20546F6F202A
:100380006661722100546F6F206661722066726F21
:100390006D207265666572656E636520706F696E4B
:1003A000740A0043290A0061626C656420286D6943
:1003B0006E2074656D702000436F6C6420657874E6
:1003C000727564657320617265200020643A0020B4
:1003D000693A0020703A00205A0020590058002045
:1003E000204D61783A2000205A0020590058002002
:1003F000204D696E3A20004F6666004F6E20005314
:100400006F667420656E6473746F70733A20005A5F
:1004100020456E6473746F702041646A7573746DE7
:10042000656E742073657420746F20286D6D293A91
:100430000053657474696E672054726176656C2030
:10044000416363656C65726174696F6E3A20005335
:10045000657474696E6720526574726163742041BB
:100460006363656C65726174696F6E3A20005365F1
:100470007474696E67205072696E7420416363659D
:100480006C65726174696F6E3A20005365747469AB
:100490006E67205072696E7420616E6420547261C0
:1004A00076656C20416363656C65726174696F6E1B
:1004B0003A20004D31343520533C696E6465783EF6
:1004C000206F7574206F662072616E67652028301A
:1004D0002D31290A004649524D574152455F4E4140
:1004E0004D453A4D61726C696E20312E312E302DA2
:1004F00052433820284769746875622920534F5544
:100500005243455F434F44455F55524C3A687474BB
:1005100070733A2F2F6769746875622E636F6D2F41
:100520004D61726C696E4669726D776172652F4DAF
:1005300061726C696E2050524F544F434F4C5F565E
:10054000455253494F4E3A312E30204D4143484990
:100550004E455F545950453A3344205072696E7489
:1005600065722045585452554445525F434F554E8D
:10057000543A3120555549443A63656465326132D5
:10058000662D343161322D343734382D39623132B1
:100590002D6335356336326633363766660A003387
:1005A00044205072696E746572204F66662E004258
:1005B000656420646F6E652E004A3039003F0A0082
:1005C00020573A004265642048656174696E672E61
:1005D000004A3038004A3033004A3034004A30375D
:1005E0000048656174696E6720646F6E652E003F18
:1005F0000A0020573A004A30360048656174696E37
:10060000672E2E2E003344205072696E746572205E
:1006100072656164792E006F6B004B494C4C454408
:100620002E20004543484F00494E464F0045525248
:100630004F52530044525952554E00434F4D4D5561
:100640004E49434154494F4E006F666600230628C9
:10065000062D0634063B0644454255473A00486598
:100660006174696E672E2E2E003344205072696EBD
:100670007465722072656164792E002569730025A6
:10068000696D20256973002569682025696D20251D
:10069000697300256964202569682025696D202516
:1006A00069730025697920256964202569682025FA
:1006B000696D20256973005072696E742074696DCC
:1006C000653A2000456E642066696C65206C69732C
:1006D000740A00426567696E2066696C65206C6902
:1006E00073740A004E6F206D6F76652E00334420C0
:1006F0005072696E7465722072656164792E005261
:100700006573756D696E67207072696E74005761EC
:10071000697420666F7220757365722E2E2E00200C
:10072000453A00205A3A0020593A00583A00576199
:10073000726E696E673A20486F6D696E6720427508
:100740006D702044697669736F72203C20310A0015
:100750004A303400536C6565702E2E2E0047322FC0
:1007600047332062616420706172616D65746572E7
:10077000730A004163746976652045787472756404
:1007800065723A20002042403A0020403A00202F73
:100790000020423A00202F0020543A00556E6B6E24
:1007A0006F776E20636F6D6D616E643A202200205A
:1007B000496E76616C6964206578747275646572DF
:1007C000200053442072656164206572726F720A62
:1007D00000446F6E65207072696E74696E67206682
:1007E000696C650A004B494C4C45442E200053541B
:1007F0004F505045442E20005072696E746572202F
:1008000073746F707065642064756520746F206503
:1008100072726F72732E2046697820746865206545
:1008200072726F7220616E6420757365204D393964
:100830003920746F20726573746172742E2028548D
:10084000656D70657261747572652069732072657B
:100850007365742E20536574206974206166746515
:10086000722072657374617274696E67290A004E32
:100870006F204C696E65204E756D626572207769D8
:10088000746820636865636B73756D2C204C6173AD
:1008900074204C696E653A20004E6F204368656392
:1008A0006B73756D2077697468206C696E65206E56
:1008B000756D6265722C204C617374204C696E6595
:1008C0003A2000636865636B73756D206D69736DA5
:1008D000617463682C204C617374204C696E653AB6
:1008E00020004C696E65204E756D626572206973DB
:1008F000206E6F74204C617374204C696E65204EBD
:10090000756D6265722B312C204C617374204C69BB
:100910006E653A20004D31313000656E7175657538
:1009200065696E672022004731205A2B323000471C
:100930003931004A31300056312E312E32004A33DF
:100940003320004A3032004A313200473930004704
:1009500031204525694635303000473120452D305E
:100960002E314625690047312045302E3146256914
:10097000004731205A2569462569004731205A2D04
:10098000302E31462569004731205A302E31462518
:1009900069004731205925694625690047312059AA
:1009A0002D302E314625690047312059302E3146F1
:1009B00025690047312058256946256900473120BF
:1009C000582D302E314625690047312058302E31C0
:1009D0004625690047393100473238004732382010
:1009E0005A004732382059004732382058004132E7
:1009F000305620004A3036004D3834004A3034003A
:100A00004A3136004A303500454E4400464E2000FB
:100A10004A3032003939393A393939004D00480005
:100A20004137562000413656202D2D2D0041365697
:100A300020005A3A2000593A2000583A2000413507
:100A40005600413456200041335620004132562092
:100A500000413156200041305620004D31313000E8
:100A60004A3132004A3033004A3135004A323300CD
:100A7000FFFFFF0000A0400000A040000000400079
:100A8000005C430000574300004E430000A0C0003C
:100A90000000000000000000005743000057430022
:100AA000004E430000A0C000000000000000004F06
:100AB0004B0045525220006563686F3A00457272E0
:100AC0006F723A007C3C3E5E2B3D3F2F5B5D3B2CC2
:100AD0002A225C004A3134004D3331004D38342035
:100AE000582059205A20450043616E6E6F7420656E
:100AF0006E746572207375626469723A2000617564
:100B0000746F25692E67006572726F722077726943
:100B100074696E6720746F2066696C650A004E6F99
:100B200074205344207072696E74696E670A0053B2
:100B300044207072696E74696E67206279746520F2
:100B40000044656C6574696F6E206661696C6564EC
:100B50002C2046696C653A200046696C6520646506
:100B60006C657465643A006F70656E206661696CCF
:100B700065642C2046696C653A2000577269746977
:100B80006E6720746F2066696C653A20004A3231C6
:100B9000006F70656E206661696C65642C20466923
:100BA0006C653A20004A3231006F70656E206661D4
:100BB000696C65642C2046696C653A20004A3230C5
:100BC0000046696C652073656C65637465640A0032
:100BD0002053697A653A200046696C65206F70651C
:100BE0006E65643A20004A3231006F70656E20668F
:100BF00061696C65642C2046696C653A200020664A
:100C0000696C653A20004E6F7720002220706F7368
:100C1000002220706172656E743A22005355425270
:100C20004F5554494E452043414C4C2074617267E6
:100C300065743A22004B494C4C45442E2000747296
:100C400079696E6720746F2063616C6C20737562C4
:100C50002D67636F64652066696C657320776974BE
:100C60006820746F6F206D616E79206C6576656C9D
:100C7000732E204D4158206C6576656C2069733A5F
:100C8000004A3032004A31360047393000473120BF
:100C90005A2D3230004D3234004D3233202573004E
:100CA00053442063617264206F6B0A006F70656E3D
:100CB000526F6F74206661696C65640A00766F6CB0
:100CC000756D652E696E6974206661696C65640A6C
:100CD00000534420696E6974206661696C0A0020C3
:100CE000204D3230302044300A0020204D32303048
:100CF0002044002044697361626C65640A0046699F
:100D00006C616D656E742073657474696E67733A97
:100D10000020440020490020204D33303120500075
:100D20005049442073657474696E67733A0A0020F1
:100D3000460020420020480020204D313435205309
:100D4000004D6174657269616C20686561747570CD
:100D500020706172616D65746572733A0A002020BB
:100D60004D363636205A005A3220456E6473746F01
:100D7000702061646A7573746D656E7420286D6D82
:100D8000293A0A00205A0020590020204D323036DE
:100D9000205800486F6D65206F6666736574202863
:100DA0006D6D290A00204500205A00205900205866
:100DB0000020420020540020204D323035205300C6
:100DC000416476616E636564207661726961626C0C
:100DD00065733A20533D4D696E20666565647261A6
:100DE000746520286D6D2F73292C20543D4D696E3C
:100DF0002074726176656C206665656472617465E5
:100E000020286D6D2F73292C20423D6D696E696D10
:100E1000756D207365676D656E742074696D6520EE
:100E2000286D73292C20583D6D6178696D756D2092
:100E30005859206A65726B20286D6D2F73292C20FC
:100E4000205A3D6D6178696D756D205A206A657212
:100E50006B20286D6D2F73292C2020453D6D617806
:100E6000696D756D2045206A65726B20286D6D2F48
:100E700073290A0020540020520020204D323034C3
:100E8000205000416363656C65726174696F6E73B5
:100E90003A20503D7072696E74696E672C20523D25
:100EA0007265747261637420616E6420543D747263
:100EB0006176656C0A00204500205A002059002008
:100EC000204D3230312058004D6178696D756D20AC
:100ED000416363656C65726174696F6E20286D6D26
:100EE0002F7332293A0A00204500205A0020590069
:100EF00020204D3230332058004D6178696D756D7A
:100F00002066656564726174657320286D6D2F734A
:100F1000293A0A00204500205A0020590020204D7F
:100F200039322058005374657073207065722075D3
:100F30006E69743A0A0048617264636F6465642084
:100F400044656661756C742053657474696E67736B
:100F5000204C6F616465640A00454550524F4D2036
:100F6000636865636B73756D206D69736D61746320
:100F7000680A00206279746573290A002073746F0F
:100F80007265642073657474696E6773207265742A
:100F9000726965766564202800206279746573291A
:100FA0000A0053657474696E67732053746F7265B9
:100FB000642028004572726F722077726974696EBE
:100FC0006720746F20454550524F4D210A007A32F8
:100FD0005F6D696E3A20007A5F6D696E3A20007924
:100FE0005F6D696E3A2000785F6D696E3A2000523D
:100FF00065706F7274696E6720656E6473746F706C
:10100000207374617475730A0020746F6F206C6FA5
:101010006E6720657874727573696F6E2070726583
:1010200076656E7465640A004A31330020636F6C24
:101030006420657874727573696F6E20707265765E
:10104000656E7465640A00205A3A0020593A0020FF
:10105000436F756E7420583A20004D383420582064
:1010600059205A20450024F4D43050C38E20C2A207
:101070004017828B7011127A910D816CD90AA86188
:10108000E108C7586607615143061E4B5D05C1451F
:10109000A7041A411104093D980371393103403600
:1010A000DB0265339102D4305402802E1D02632C82
:1010B000EE01752AC501B028A001102781018F25F6
:1010C00064012B244B01E0223401AC211F018D204F
:1010D0000D01801FFC00841EED00971DDF00B81C71
:1010E000D200E61BC600201BBC00641AB200B21975
:1010F000A8000A19A0006A189900D117910040179A
:101100008B00B516840031167E00B31579003A15B0
:101110007300C7146F0058146A00EE13660088133A
:10112000630025135E00C7125B006C125700151296
:101130005400C111510070114F0021114B00D61005
:1011400049008D1047004610440002104200C00FB5
:101150004000800F3E00420F3C00060F3B00CB0ECC
:101160003800930E37005C0E3500270E3400F30D67
:101170003200C10D3100900D3000600D2E00320D97
:101180002D00050D2C00D90C2B00AE0C2900850C70
:1011900029005C0C2700350C27000E0C2600E80BFC
:1011A0002400C40B2400A00B23007D0B23005A0B4A
:1011B0002100390B2100180B2000F80A1F00D90A62
:1011C0001E00BB0A1E009D0A1D00800A1D00630A46
:1011D0001C00470A1B002C0A1B00110A1A00F70901
:1011E0001A00DD091900C4091900AB091900920998
:1011F00017007B091800630917004C09160036090F
:101200001600200916000A091500F5081500E00867
:101210001400CC081400B8081400A40814009008A6
:1012200013007D0812006B081300580812004608CE
:1012300012003408110023081100120811000108DF
:101240001100F0071000E0071000D0071000C007E1
:101250001000B0070F00A107100091070E008307D0
:101260000F0074070F0065070E0057070E004907AF
:101270000E003B070D002E070E0020070D00130780
:101280000D0006070D00F9060C00ED060D00E00646
:101290000C00D4060C00C8060C00BC060C00B006FE
:1012A0000C00A4060B0099060C008D060B008206AC
:1012B0000B0077060B006C060B0061060A00570650
:1012C0000B004C060A0042060A0038060A002E06E9
:1012D0000A0024060A001A060A001006090007067A
:1012E0000A00FD050900F4050900EB050900E20507
:1012F0000900D9050900D0050900C7050900BE0588
:101300000900B5050800AD050800A50509009C0504
:101310000800940508008C050800840508007C0579
:101320000800740508006C050700650508005D05E8
:101330000700560508004E05070047050700400551
:10134000080038050700310507002A0507002305B6
:1013500007001C050600160507000F050700080515
:10136000060002050700FB040600F5040700EE0472
:101370000600E8040600E2040700DB040600D504CA
:101380000600CF040600C9040600C3040600BD041D
:101390000600B7040600B1040500AC040600A6046C
:1013A0000600A00405009B040600950405009004B7
:1013B00006008A04050085040500800406007A04FE
:1013C000050075040500700405006B040500660443
:1013D0000500610405005C04050057040500520483
:1013E00005004D04050048040500430405003E04C3
:1013F00004003A04050035040500300404002C0400
:10140000050027040400230405001E0404001A0438
:10141000040016040500110404000D04040009046E
:1014200005000404040000040400FC030400F803A5
:101430000400F4030400F0030400EC030400E803D8
:101440000400E4030400E0030400DC030400D80308
:101450000400D4030400D0030400CC030400C80338
:101460000300C503030024F404D9201BC40C5C0E44
:101470009804C4095F0265077101F405F900FB04D3
:10148000B30048048700C1036900580355000303F3
:101490004500BE023A008402310053022A002902AC
:1014A000250004022000E4011C00C8011900AF015E
:1014B00017009801140084011300710110006101EC
:1014C000100051010E0043010D0036010B002B01ED
:1014D0000B0020010B00150109000C01090003019C
:1014E0000800FB000800F3000800EB000700E40020
:1014F0000600DE000600D8000600D2000600CC0080
:101500000500C7000500C2000500BD000400B900C9
:101510000400B5000400B1000400AD000400A900FF
:101520000400A5000300A20003009F0004009B002C
:101530000300980003009500020093000300900050
:1015400003008D0002008B0003008800020086006B
:10155000020084000300810002007F0002007D0081
:1015600002007B0002007900020077000100760093
:1015700002007400020072000100710002006F009E
:1015800002006D0001006C0002006A0001006900A9
:1015900002006700010066000100650001006400B0
:1015A00002006200010061000100600001005F00B4
:1015B00002005D0001005C0001005B0001005A00B8
:1015C00001005900010058000100570001005600B9
:1015D00001005500010054000100530000005300B9
:1015E00001005200010051000100500001004F00B5
:1015F00001004E0000004E0001004D0001004C00B3
:1016000001004B0000004B0001004A0001004900AE
:1016100001004800000048000100470001004600AA
:1016200000004600010045000000450001004400A4
:10163000010043000000430001004200000042009E
:1016400001004100000041000100400001003F0096
:1016500000003F0001003E0000003E0001003D0090
:1016600000003D0001003C0000003C0000003C0088
:1016700001003B0000003B0001003A0000003A007E
:101680000100390000003900010038000000380076
:10169000000038000100370000003700010036006C
:1016A0000000360000003600010035000000350063
:1016B0000000350001003400000034000000340058
:1016C000010033000000330000003300010032004D
:1016D0000000320000003200010031000000310043
:1016E0000000310001003000000030000000300038
:1016F00001002F0000002F0000002F0000002F002D
:1017000001002E0000002E0000002E0001002D0020
:1017100000002D0000002D0000002D0001002C0015
:1017200000002C0000002C0000002C0001002B0009
:1017300000002B0000002B0000002B0001002A00FD
:1017400000002A0000002A0000002A0001002900F1
:1017500000002900000029000000290000002900E5
:1017600001002800000028000000280000002800D8
:1017700000002800010027000000270000002700CB
:1017800000002700000027000100260000002600BE
:1017900000002600000026000000260001002500B1
:1017A00000002500000025000000250000002500A5
:1017B0000000250001002400000024000000240097
:1017C000000024000000240001002300000023008A
:1017D000000023000000230000002300000023007D
:1017E000000023000100220000002200000022006F
:1017F0000000220000002200000022000100210061
:101800000000210000002100000021000000210054
:101810000000210000002100010020000000200045
:101820000000200000002000000020000000200038
:10183000000020000000200001001F0000001F0029
:1018400000001F0000001F0000001F0000001F001C
:1018500000001F0001001E0000001E0000001E000E
:1018600000001E0000004D494E54454D502074723A
:1018700069676765726564004572723A204D494E2A
:1018800054454D5020424544004572723A204D491E
:101890004E54454D50004D415854454D50207472A2
:1018A00069676765726564004572723A204D4158F8
:1018B00054454D5020424544004572723A204D41F6
:1018C0005854454D50006265640A002C20737973AA
:1018D00074656D2073746F70706564212048656154
:1018E0007465725F49443A200023646566696E65D9
:1018F000202044454641554C545F4B6420002364EE
:101900006566696E65202044454641554C545F4BE1
:1019100069200023646566696E6520204445464160
:10192000554C545F4B702000504944204175746FF2
:1019300074756E652066696E6973686564212050F0
:10194000757420746865206C617374204B702C2052
:101950004B6920616E64204B6420636F6E73746109
:101960006E74732066726F6D2062656C6F7720698C
:101970006E746F20436F6E66696775726174696F0C
:101980006E2E680A00504944204175746F74756E5C
:1019900065206661696C6564212074696D656F7589
:1019A000740A00504944204175746F74756E652047
:1019B0006661696C6564212054656D70657261743F
:1019C00075726520746F6F20686967680A00204B24
:1019D000643A2000204B693A2000204B703A2000E6
:1019E0000A20436C617373696320504944200A00E4
:1019F0002054753A2000204B753A2000206D617804
:101A00003A2000206D696E3A200020643A200020C0
:101A1000626961733A20001000C90210012C014074
:101A200001220170011801B0010E01F00104015002
:101A300002FA00B002F0003003E600D003DC0090B0
:101A400004D2007005C800A006BE000008B400B0B3
:101A500009AA00D00BA000600E960060118C000057
:101A600015820020197800C01D6E00A0226400B00D
:101A7000275A00902C500000314600E0343C001002
:101A8000383200903A2800603C1E00A03D140080CF
:101A90003E0A00203F000070012C0190012701B098
:101AA000012201C0011D01F00118011002130130D3
:101AB000020E016002090190020401C002FF000051
:101AC00003FA004003F5008003F000D003EB002090
:101AD00004E6007004E100E004DC004005D700C02B
:101AE00005D2004006CD00D006C8008007C30030F4
:101AF00008BE00F008B900C009B400B00AAF00B0D9
:101B00000BAA00D00CA500000EA000500F9B00C037
:101B10001096005012910000148C00C0158700B080
:101B2000178200B0197D00D01B7800001E730040A2
:101B3000206E0090226900F024640040275F00902E
:101B4000295A00E02B5500102E500020304B001079
:101B5000324600E033410090353C001037370070CA
:101B6000383200A0392D00B03A2800A03B23006095
:101B70003C1E00103D1900903D1400103E0F0070F7
:101B80003E0A00C03E0500003F00004A30310043DD
:101B90006172642072656D6F766564004A30300052
:101BA0004361726420696E73657274656400052E0A
:101BB0002E004D61696E0046696C2E204469612ECD
:101BC0000046696C2E204469612E004520696E2014
:101BD0006D6D33004F6666004F6E2000436F6E746C
:101BE000726F6C004573746570732F6D6D00457373
:101BF000746570732F6D6D005A73746570732F6DFB
:101C00006D005A73746570732F6D6D005973746530
:101C100070732F6D6D005973746570732F6D6D0047
:101C20005873746570732F6D6D005873746570739D
:101C30002F6D6D00412D74726176656C00412D74BD
:101C4000726176656C00412D726574726163740017
:101C5000412D7265747261637400416D6178204535
:101C600000416D6178204500416D6178205A004146
:101C70006D6178205A00416D6178205900416D6195
:101C800078205900416D6178205800416D617820BD
:101C900058005654726176206D696E005654726118
:101CA00076206D696E00566D696E00566D696E0026
:101CB000566D6178204500566D6178204500566D5F
:101CC0006178205A00566D6178205A00566D61780F
:101CD000205900566D6178205900566D6178205862
:101CE00000566D617820580056652D6A65726B004C
:101CF00056652D6A65726B00567A2D6A65726B00A7
:101D0000567A2D6A65726B0056792D6A65726B0082
:101D100056792D6A65726B0056782D6A65726B0074
:101D200056782D6A65726B00416363656C00416390
:101D300063656C00436F6E74726F6C0053746F72E6
:101D400065206D656D6F727900426564004265645F
:101D5000004E6F7A7A6C65004E6F7A7A6C65004639
:101D6000616E2073706565640046616E20737065F6
:101D700065640054656D70657261747572650050BC
:101D80007265686561742041425320636F6E66001E
:101D90005072656865617420504C4120636F6E66B7
:101DA000005049442D44005049442D4400504944BA
:101DB0002D49005049442D49005049442D500050B0
:101DC00049442D5000200220466163740020022007
:101DD00046616374002002204D6178002002204D8E
:101DE0006178002002204D696E002002204D696E4E
:101DF000004175746F74656D70004F6666004F6EBC
:101E0000200046616E2073706565640046616E2037
:101E100073706565640042656400426564004E6FDE
:101E20007A7A6C65004E6F7A7A6C6500436F6E74D7
:101E3000726F6C00526573746F7265206661696CB5
:101E400073616665004C6F6164206D656D6F7279BA
:101E50000053746F7265206D656D6F72790046690D
:101E60006C616D656E74004D6F74696F6E005465C2
:101E70006D7065726174757265004D61696E004DBB
:101E80006F766520302E316D6D004D6F7665203197
:101E90006D6D004D6F76652031306D6D005072654F
:101EA00070617265004578747275646572004D6F7B
:101EB0007665205A004D6F76652059004D6F766526
:101EC0002058004D6F7665206178697300457874FD
:101ED0007275646572004D6F7665205A004D6F769D
:101EE000652059004D6F7665205800436F6F6C6414
:101EF0006F776E00507265686561742041425300CF
:101F00005072656865617420504C41004D38340052
:101F100044697361626C6520737465707065727377
:101F2000004D6F7665206178697300536574206891
:101F30006F6D65206F666673657473004732380095
:101F40004175746F20686F6D65004D61696E00505A
:101F50007265686561742041425320426564005097
:101F6000726568656174204142530050726570610A
:101F70007265005072656865617420504C41204262
:101F80006564005072656865617420504C41005072
:101F900072657061726500466C6F7700466C6F7792
:101FA0000046616E2073706565640046616E207343
:101FB000706565640042656400426564004E6F7A36
:101FC0007A6C65004E6F7A7A6C6500537065656453
:101FD000005370656564004D61696E004D343238A0
:101FE000004E6F2053442063617264005072696E2A
:101FF000742066726F6D2053440053746F702070AC
:1020000072696E7400526573756D65207072696EC9
:1020100074005061757365207072696E7400436F4F
:102020006E74726F6C0050726570617265005475E9
:102030006E6500496E666F2073637265656E00257C
:10204000753A2530327500253032753A25303275B3
:10205000002D2D2D005344005A0059005800012036
:1020600000012000506C65617365207265736574B2
:10207000005052494E5445522048414C544544006A
:1020800000000A0B02090C0D0E08070304010000F2
:102090000000000000000000000000000000000040
:1020A00000000000000000000000000012111000FD
:1020B0000000000000000000000000000000000020
:1020C000000000000000010210202008081020403D
:1020D00010204080020102010804020101020408EC
:1020E000102040808040201008040201800402017A
:1020F00080402010080402010804020101020408C3
:1021000010204080010204081020408005050505CC
:10211000070508080808020202020A0A080804045F
:10212000040401010101010101010303030303038D
:102130000303040707070C0C0C0C0C0C0C0C02021C
:10214000020206060606060606060B0B0B0B0B0B19
:102150000B0B000020002300260029002C002F007C
:102160003200000100000301060109010000220005
:10217000250028002B002E00310034000201000051
:10218000050108010B0100002100240027002A009E
:102190002D003000330001010000040107010A0195
:1021A000024E414E494E495459494E46CDCCCC3D44
:1021B0000AD7233C17B7D13877CC2B329595E62434
:1021C0001FB14F0A000020410000C84200401C46D9
:1021D00020BCBE4CCA1B0E5AAEC59D747C30074B4A
:1021E000898511A19A3011241FBECFEFD1E2DEBF45
:1021F000CDBF00E00CBF14E0A0E0B2E0E4EFF7EBED
:1022000001E00BBF02C007900D92A03CB107D9F7C7
:1022100025E1A0ECB4E001C01D92AC3CB207E1F7AF
:1022200011E2C4EED1E200E006C022970109FE01EE
:102230000BBF0E947AD4CC3DD10780E00807A9F7F4
:102240000E9406D00C94E9DB0C9400001F920F92C0
:102250000FB60F9211240BB60F922F933F938F93CB
:102260009F93EF93FF932091C6009FB7F894E0915E
:10227000400581E08E0F8F7730914105831731F053
:10228000F0E0E054FB4F2083809340059FBFFF9117
:10229000EF919F918F913F912F910F900BBE0F90D7
:1022A0000FBE0F901F9018959B01AC01211581EE78
:1022B00038074105510549F182E08093C00060E094
:1022C00079E08DE390E00E944ED42150310941091C
:1022D0005109CA01B90122E030E040E050E00E941B
:1022E0004ED43093C5002093C4008091C10080611A
:1022F0008093C1008091C10088608093C10080916B
:10230000C10080688093C10008951092C00020E150
:1023100030E0E7CF3FB7F894209141058091400528
:10232000821759F0E22FF0E0E054FB4F808190E0FB
:102330002F5F2F772093410502C08FEF9FEF3FBFA4
:1023400008952FB7F89480914005909141052FBFD3
:10235000891B8F7708958FB7F894909141059093DA
:1023600040058FBF08959091C00095FFFCCF8093EA
:10237000C6000895AF92BF92CF92DF92EF92FF9284
:102380000F931F93CF93DF93CDB7DEB7A0970FB610
:10239000F894DEBF0FBECDBF6115710581059105B3
:1023A000A9F1B12CC42ED12CE12CF12CAA24A39498
:1023B000AB0C01E010E00C0F1D1F0B0D111DB7FC45
:1023C0001A95A70196010E942CD4F8016083B901E7
:1023D000CA01611571058105910511F41B2D11C00C
:1023E000BA2CE4CFE1E0F0E0EC0FFD1FE10FF11DAE
:1023F00017FDFA9580818A3038F490E3890FB3DFB6
:1024000011501F3F79F714C097E3F8CF80E3A096EF
:102410000FB6F894DEBF0FBECDBFDF91CF911F91F5
:102420000F91FF90EF90DF90CF90BF90AF909BCF38
:10243000A0960FB6F894DEBF0FBECDBFDF91CF914F
:102440001F910F91FF90EF90DF90CF90BF90AF90D2
:1024500008954115510511F4862F85CF8BCFCF926A
:10246000DF92EF92FF926B017C0197FF0AC08DE231
:102470007ADFF094E094D094C094C11CD11CE11C8C
:10248000F11C4AE0C701B601FF90EF90DF90CF90BA
:1024900071CF4115510511F4862F65CF4A30510592
:1024A00009F4DDCF67CFAB01BC01882777FD8095AC
:1024B000982FEFCF8DE057DF8AE055CFAB01BC01FD
:1024C00080E090E0C6DFF6CF8F929F92AF92BF92EE
:1024D000CF92DF92EF92FF92CF936B017C01B42EEB
:1024E00020E030E0A9010E94EED087FF06C08DE217
:1024F0003ADFF7FAF094F7F8F094C0E060E070E0AB
:1025000080E09FE3CB1541F02DEC3CEC4CEC5DE31F
:102510000E942CD3CF5FF6CF9B01AC01C701B6015F
:102520000E9415D06B017C010E9462D14B015C01BD
:102530004AE020DFCC2381F1C501B4010E948ED195
:102540009B01AC01C701B6010E9414D06B017C0154
:102550008EE209DF20E030E040E251E4C701B6013D
:102560000E942CD36B017C010E945DD14B01AA24F7
:1025700097FCA094BA2CC501B40171DFC501B40168
:102580000E9490D19B01AC01C701B6010E9414D0FA
:102590006B017C01C150F1F6CF91FF90EF90DF907D
:1025A000CF90BF90AF909F908F9008958DCFFC01FA
:1025B00065917591859194910895CF93DF93EBE2A6
:1025C000F7E08491EF012196882319F0CCDEFE011B
:1025D000F8CF6091EB077091EC078091ED07909137
:1025E000EE0742E050E0E2DFE7E2F7E08491EF013E
:1025F0002196882319F0B7DEFE01F8CF6091EF072E
:102600007091F0078091F1079091F20742E050E05D
:10261000CDDFE3E2F7E08491EF012196882319F002
:10262000A2DEFE01F8CF6091F3077091F40780916C
:10263000F5079091F60742E050E0B8DFEFE1F7E0F0
:102640008491EF012196882319F08DDEFE01F8CFE9
:102650006091F7077091F8078091F9079091FA0758
:1026600042E050E0A3DFDF91CF910C94458D809143
:10267000D5149091D61490938C0A80938B0A8091F4
:10268000D1149091D21490938A0A8093890A8091F0
:10269000910A813049F50E946A925F9A1092D5079B
:1026A0008A9A479A1092D6079FB7F89480910801AA
:1026B0008160809308019FBF479A1092D707129AB2
:1026C0000E942A701092910A80918B0A90918C0A34
:1026D0009093D6148093D5148091890A90918A0A98
:1026E0009093D2148093D1140895CF92DF92EF92F9
:1026F000FF920F931F93CF93DF93EC010E9424C8A6
:102700000E811F81288539850115110521053105A7
:1027100059F53C853323A9F12A8531503C8731E0B6
:10272000320F3A874D85341301C01A86FE0134E01A
:10273000239FE00DF11D112406851785208931891D
:102740000A831B832C833D836B017C01C00ED11E49
:10275000E11CF11CCE82DF82E886F9868C819D81A6
:10276000892B79F0469A0DC06B017C01C01AD10A01
:10277000E20AF30AF7FC05C046981E821F821886FB
:102780001986DF91CF911F910F91FF90EF90DF900D
:10279000CF900895DC01ED91FC910190F081E02D46
:1027A00019940E9424C860931406709315068093B0
:1027B00016069093170608958091B80F9091B70F61
:1027C000891B8F700895CF92DF92EF92FF920F9343
:1027D0001F93CF93DF93EB01FC01608171818281B4
:1027E00093812CE3C22ED12CE12CF12CA701960170
:1027F0000E942CD4162F072FCA01B901A7019601F8
:102800000E942CD4F62EE72ECA01B90128E130E04F
:1028100040E050E00E942CD4FB01C9016DE671E05C
:102820000E9405D49B014F2D5E2D21153105D9F055
:102830000F931F93EF92FF92FF93EF939F938F93CA
:102840003F932F9383EA96E09F938F93DF93CF93E9
:102850000E940ED98DB79EB70E960FB6F8949EBF04
:102860000FBE8DBF5BC00097C9F00F931F93EF920F
:10287000FF92FF93EF939F938F9383E996E09F934B
:102880008F93DF93CF930E940ED9EDB7FEB73C969E
:102890000FB6F894FEBF0FBEEDBF40C03097B9F041
:1028A0000F931F93EF92FF92FF93EF9387E896E0C9
:1028B0009F938F93DF93CF930E940ED98DB79EB7CE
:1028C0000A960FB6F8949EBF0FBE8DBF27C0452B4A
:1028D000A9F00F931F93EF92FF928FE796E09F93DB
:1028E0008F93DF93CF930E940ED9EDB7FEB7389642
:1028F0000FB6F894FEBF0FBEEDBF10C00F931F932D
:102900008BE796E09F938F93DF93CF930E940ED92E
:102910000F900F900F900F900F900F90DF91CF912D
:102920001F910F91FF90EF90DF90CF900895EF925D
:10293000FF920F931F93CF93DF93EC017B018A01EA
:102940006C854D8564130AC0E881F9810190F0819E
:10295000E02DCE0119950E941091F2CFF701208150
:102960003181F801808191815B85FE0174E0579F80
:10297000E00DF11D11243E963183208393838283E1
:102980006F5F6C8781E0850F841711F08B8701C022
:102990001B86DF91CF911F910F91FF90EF900895CB
:1029A0000F931F93CF93DF931F921F92CDB7DEB784
:1029B000FC0184918F010F5F1F4F811102C08B01B9
:1029C00007C069837A83CFDCF80169817A81F1CF0E
:1029D000D8018D918D01882311F0C5DCF9CF0F90BE
:1029E0000F90DF91CF911F910F9108950F931F9337
:1029F000CF93DF93EB01FC0184918F010F5F1F4F99
:102A0000882319F0B0DCF801F7CF6AE070E0CE015E
:102A1000DF91CF911F910F9146CDCF92DF92EF9230
:102A2000FF92CF93DF936A017B01FC018491EF0158
:102A30002196882319F097DCFE01F8CF4AE050E098
:102A4000C701B601DF91CF91FF90EF90DF90CF905B
:102A500020CDCF92DF92EF92FF92CF93DF936A0166
:102A60007B01FC018491EF012196882319F07BDC26
:102A7000FE01F8CF42E050E0C701B601DF91CF91EF
:102A8000FF90EF90DF90CF9091CDCF92DF92EF92B9
:102A9000FF92CF93DF936A017B01FC018491EF01E8
:102AA0002196882319F05FDCFE01F8CF42E050E068
:102AB000C701B601DF91CF91FF90EF90DF90CF90EB
:102AC00075CDCF92DF92EF92FF92CF93DF936A01A1
:102AD0007B01FC018491EF012196882319F043DCEE
:102AE000FE01F8CF4AE050E0C701B601DF91CF9177
:102AF000FF90EF90DF90CF90ACCC60E08FE40E942D
:102B00000FCA61E08AE30E940FCA8C98089560E0C2
:102B100083E10E940FCA5A9A2FEF80E792E021507A
:102B200080409040E1F700C000000895CF93DF930C
:102B30008091C705811109C089B182FB882780F97E
:102B40008093BC0581E08093C70549B142FB4427CF
:102B500040F94093BB05242F30E08091BC059927B4
:102B600087FD9095821793070CF05AC08091B905A4
:102B70009091BA0501969093BA058093B905803873
:102B80009E4308F456C01092BA051092B9050E94EF
:102B90008E738091FE07882321F1ECE6FAE06491C0
:102BA000EF01662351F0772767FD70958FE29CE077
:102BB000F1DD2196FE016491F4CF6DE070E08FE2CB
:102BC0009CE0E8DD6AE070E08FE29CE0E3DD81E01C
:102BD00080938F0A8093BD058093EA0E1092FE07C2
:102BE0001AC0E8E6FAE06491EF01662351F0772716
:102BF00067FD70958FE29CE0CDDD2196FE0164912A
:102C0000F4CF6DE070E08FE29CE0C4DD6AE070E03C
:102C10008FE29CE0BFDD8091BB058093BC0509C0BD
:102C20002817390731F01092BA051092B905409370
:102C3000BC05DF91CF910895CF93DF939091260C3F
:102C40008091C605911131C0882309F479C0809123
:102C5000B5059091B605A091B705B091B80501965C
:102C6000A11DB11D8093B5059093B605A093B7053E
:102C7000B093B8051092C6050297A105B1050CF4F2
:102C80005FC081E08093260CE4E6FAE06491EF01F6
:102C9000662309F438C0772767FD70958FE29CE0C2
:102CA00079DD2196FE016491F3CF81113FC08091BF
:102CB000B5059091B605A091B705B091B8050196FC
:102CC000A11DB11D8093B5059093B605A093B705DE
:102CD000B093B8058135934CA105B1058CF11092E4
:102CE000C6051092260CE0E6FAE06491EF01662337
:102CF00051F0772767FD70958FE29CE04BDD2196C0
:102D0000FE016491F4CF6DE070E08FE29CE042DD63
:102D10006AE070E08FE29CE03DDD1092B505109214
:102D2000B6051092B7051092B8050AC01092B50505
:102D30001092B6051092B7051092B8051092C6050C
:102D4000DF91CF9108950E9424C860931406709378
:102D50001506809316069093170608958091960A9B
:102D60009091970A60E070E001960C948DD4682FE2
:102D7000772767FD70952091A20A3091A30A40E65B
:102D8000429FC001439F900D11248A55954F0E9488
:102D9000BCD89093970A8093960A21E0892B09F476
:102DA00020E0822F08958091FF07882389F01092F8
:102DB000E90E1092E80E81E0809338026AE070E03C
:102DC00080E090E00E9453C88CEF97E00E94985DED
:102DD0008091E80E9091E90E0895CF92DF92EF92E4
:102DE000FF926C01EE24D7FCE094FE2C1616170619
:102DF0008CF420E030E0A9018FE10E9472CCC70181
:102E0000B6010E9453C88FE1FF90EF90DF90CF9002
:102E10000C9493CFC701B601FF90EF90DF90CF9055
:102E20000C9453C88091BE0581111FC0659B02C0E0
:102E300038E001C030E090910901991F9927991F4E
:102E4000990F990F8091090186FF02C022E001C00D
:102E500020E089B183FB882780F9832B892B822B83
:102E60008093B40581E08093BE05659B02C028E095
:102E700001C020E080910901881F8827881F880FE2
:102E8000880F9091090196FF02C092E001C090E086
:102E900049B143FB442740F9422B482B492B40932F
:102EA000B305242F332727FD30958091B40599274A
:102EB00087FD9095281739079CF48091B2058F5FA4
:102EC0008093B2058A3F98F01092B20560ED77E0EA
:102ED0008CE390E082DF8091B3058093B405089580
:102EE0002817390721F01092B2054093B4050895D0
:102EF0000E9487710E942B718091EF0E8A3599F0A4
:102F00008AE58093EF0E0E94FE708DEC9CECACE4A1
:102F1000BEE38093290C90932A0CA0932B0CB093C2
:102F20002C0C0C944D718091EB0E9091EC0EA091B5
:102F3000ED0EB091EE0E8093290C90932A0CA09385
:102F40002B0CB0932C0C0895EAE0F1E080818062B4
:102F500080839FB7F894EBE0F1E080818F7D8083E0
:102F60009FBF089520E030E042E852E46091DD1414
:102F70007091DE148091DF149091E0140E94F1D2E0
:102F80009FB718162CF4F89480910B01806204C04E
:102F9000F89480910B018F7D80930B019FBF089562
:102FA0008CEF97E00C94075E27EF37E043EF57E094
:102FB0006FEE77E08BEE97E00C94B4838F929F9244
:102FC000BF92CF92DF92EF92FF920F931F93CF9316
:102FD000DF9300D01F92CDB7DEB7B22ED32E4C01B7
:102FE000880C991C880C991CC4018551984F7C0150
:102FF000FC01108211821282138249835A836B83EF
:103000007C83D2DF49815A816B817C81F7014083C7
:10301000518362837383C0901C0620E030E0A901D5
:10302000B8018B2D9D2D0E94EED0811108C0F401B6
:10303000E652FC4F90818181B280D38002C0902FF4
:10304000812FE92EF82E0B2D1D2D27EF37E043EFB2
:1030500057E06FEE77E08BEE97E00E94F6780E94E3
:103060006D8C10920A0F0F900F900F900F90DF91C0
:10307000CF911F910F91FF90EF90DF90CF90BF9075
:103080009F908F90089580914B0680934C061092EC
:103090004A06089520914B0630E0F901E153FA4FBA
:1030A0008083C90101968370992780934B06809194
:1030B0004A068F5F80934A060895CF93FC01C62F7E
:1030C00080818B3399F080914A06843078F4209186
:1030D0004B0630E6239FC0011124BF01835B994F4B
:1030E0000E94D0D88C2FD6DF81E001C080E0CF9144
:1030F00008950F931F93CF93DF93EC01DEDF8823B6
:10310000A9F0E7EBFAE084918F010F5F1F4F88234E
:1031100019F029D9F801F7CFBE018AE199E040DC26
:1031200082E221D98AE01FD981E001C080E0DF91ED
:10313000CF911F910F910895DF92EF92FF920F931D
:103140001F93CF93DF93CDB7DEB76E970FB6F8948A
:10315000DEBF0FBECDBF6091420670914306611580
:10316000710559F14DE150E08E010F5F1F4FC8010D
:103170000E945FD81E8EF8017F01E01AF10AD190FB
:10318000DD2019F08AE0D812F7CFF801EE0DFF1D0F
:10319000108260E0C801ADDF882379F0DD20B1F056
:1031A0008FEFE81AF80A80914206909143068E0D3F
:1031B0009F1D909343068093420681E02091420632
:1031C00030914306232B39F480E005C0109243066A
:1031D00010924206F2CF6E960FB6F894DEBF0FBE85
:1031E000CDBFDF91CF911F910F91FF90EF90DF90B6
:1031F000089590934306809342069ECF80914A069D
:103200008430E8F48091AF058F5F8093AF05813003
:1032100039F48FE299E090934306809342068CDF65
:103220008091AF05823059F487E299E0909343068C
:103230008093420681DF1092BD051092AF0508957C
:103240009898A09A08958F929F92AF92BF92CF9232
:10325000DF92EF92FF920F931F93CF93DF93CDB73F
:10326000DEB728970FB6F894DEBF0FBECDBF8091B2
:10327000FE07882309F485C180914A06811102C0A6
:1032800010924D059924939440917A0A50917B0AAB
:1032900060917C0A70917D0A8091760A9091770AFC
:1032A000A091780AB091790A481759076A077B07F5
:1032B00008F4912C00E010E0BB24B394F0E6AF2EAC
:1032C00090914A0680912E0C943008F0B1C0911074
:1032D000AFC090914D059111ABC08111A9C08091F3
:1032E000D1099091D209A091D309B091D4098093CA
:1032F0007A0A90937B0AA0937C0AB0937D0A89ECAA
:1033000099E00E941250882E99249394C0907A0AD2
:10331000D0907B0AE0907C0AF0907D0A4091760A7A
:103320005091770A6091780A7091790AC416D5068F
:10333000E606F706C0F4912C8F3F2FEF920751F16C
:103340004AE0841709F445C0ADE08A1709F441C08A
:10335000B3E28B1719F02AE3821350C020914C0579
:1033600021114CC031C0E1EDF7E084917F014FEFB6
:10337000E41AF40A882321F00E94B311F701F5CF73
:103380008CEF97E00E94A66661E08CEF97E00E94C8
:1033900085611AC0EDEBFAE084917F019FEFE91A95
:1033A000F90A882321F00E94B311F701F5CFE2EC6E
:1033B000F7E084917F01AFEFEA1AFA0A882321F03F
:1033C0000E94B311F701F5CFB3E28B1202C0B092A5
:1033D0004D0510924C050115110509F471CF80912E
:1033E0004B06F801A89EE00DF11D1124E35BF94F97
:1033F000108280E04FDE00E010E062CF0F35110553
:1034000008F05ECF2BE3821202C0B0924C052091EF
:103410004C05211155CF90914B06F801A99EE00D66
:10342000F11D1124E35BF94F80830F5F1F4F48CFDD
:10343000882309F4A6C0EDE4F6E02DEA36E08DE03D
:1034400097E06DE677E01192D9011D929D01DC01B4
:103450001D92CD01DB011D92BD01B6E0ED3AFB07E7
:1034600091F7C0901C0660912F027091300288275E
:1034700077FD8095982F0E9490D119821A821B8225
:103480001C8200E010E020EA30EC0D831E832F83C5
:1034900038877B018C0124EF3EE048EF5EE0BE01FF
:1034A0006F5F7F4FCE0105960E94F67864EF7EE055
:1034B00083E090E00E9470848091000F9091010F52
:1034C000A091020FB091030F8093DB079093DC076C
:1034D000A093DD07B093DE078091FC0E9091FD0E66
:1034E000A091FE0EB091FF0E8093DF079093E0074E
:1034F000A093E107B093E2072AE939E949E95EE3DD
:103500006091F3077091F4078091F5079091F607A9
:103510000E94F1D21816BCF42DEC3CEC4CEC5DE3AF
:103520006091F80E7091F90E8091FA0E9091FB0E59
:103530000E9414D06093F3077093F4078093F5070B
:103540009093F60710C08091F80E9091F90EA0911B
:10355000FA0EB091FB0E8093F3079093F407A093BB
:10356000F507B093F60785E595E5A5E0B2E480930D
:10357000310290933202A0933302B093340210923E
:103580002E0C28960FB6F894DEBF0FBECDBFDF918C
:10359000CF911F910F91FF90EF90DF90CF90BF9050
:1035A000AF909F908F9008950F931F93CF93DF93C9
:1035B000009144061091450665E470E0C8010E9440
:1035C000BCD8EC01C8010196209761F0188260E038
:1035D00070E00E948DD425E42883DF91CF911F9164
:1035E0000F91089560E070E0DF91CF911F910F91EE
:1035F0000C948DD480914406909145064AE050E0A9
:1036000060E070E001960C9426D78091440690917A
:1036100045064AE050E060E070E001960C94F5D574
:1036200080914406909145064AE050E060E070E0E9
:1036300001960E94F5D5CB010895809144069091A2
:1036400045064AE050E060E070E001960E9426D70F
:10365000CB01089580914406909145064AE050E0E0
:1036600060E070E001960E94F5D597FD20C0809142
:103670004406909145064AE050E060E070E0019613
:103680000E94F5D56F3F71058105910509F064F43D
:1036900080914406909145064AE050E060E070E079
:1036A00001960E94F5D501C06FEF862F089580E046
:1036B0000895E0914406F0914506218181E090E073
:1036C000203231F40196DF01A80FB91F2C91F8CFF9
:1036D0002D3211F02B3229F40196DF01A80FB91F0A
:1036E0002C912E3219F4E80FF91F218120532A3032
:1036F00038F4B0DF91E0811101C090E0892F089586
:1037000081E0089551CF50CF4FDF20E030E04AE70D
:1037100054E40E942CD30C9462D1682F772767FD64
:10372000709580914606909147060E94BCD8909370
:1037300045068093440621E0892B09F420E0822F7E
:1037400008950F931F93CF93DF93EC0184E5E5DF9A
:10375000882321F17FDF8823F9F0E7EBFAE08491F9
:103760008F010F5F1F4F882321F00E94B311F801D2
:10377000F6CF8DE40E94B3116AE070E0CE010E94A2
:10378000531268DF682F70E08FEA97E02FD98AE044
:103790000E94B31181E007C05DDF02C080911C066A
:1037A0008093E30580E0DF91CF911F910F91089501
:1037B000CF92DF92EF92FF920F931F93CF93DF93FD
:1037C000EC01CC0FDD1FCC0FDD1FFE01E15EF94FD8
:1037D00020E030E0A90160817181828193810E94A3
:1037E00015D0FE01E55DF94F208131814281538181
:1037F0000E9415D06B017C01CE018D55954F0E9422
:10380000D7128E01085E1D4FA70196010E9415D0A8
:10381000F8016083718382839383CE018956954F2B
:103820000E94D712C45FDD4FA70196010E9415D0F8
:10383000688379838A839B83DF91CF911F910F9156
:10384000FF90EF90DF90CF9008952F923F924F928C
:103850005F927F928F929F92AF92BF92CF92DF92B0
:10386000EF92FF920F931F93CF93DF9300D000D07E
:10387000CDB7DEB75C01FC01E059F54F74908230A2
:10388000910519F481E080938D144501880C991CF1
:10389000880C991CC4018158954F0E94D7121B01B6
:1038A0002C01672D772767FD7095872F972F0E9432
:1038B00090D16B017C0120E030E040EC5FE3C2017D
:1038C000B1010E942CD3A70196010E942CD3AB0119
:1038D000BC0100E010E09801C50170DBC4018D5807
:1038E000954F0E94D7129B01AC01C701B6010E94FF
:1038F0002CD36B017C0120E030E0A9010E94EED0C6
:10390000882309F458C000E010E09801B701A6012F
:103910007058C50153DB86E0E6E2F3E0DE01119664
:1039200001900D928A95E1F7F501EE0FFF1F81E0FE
:1039300090E08C0F9D1FE80FF91F608171811616B2
:103940001706D4F0E7EBFAE084918F010F5F1F4F69
:10395000882321F00E94B311F801F6CFEEE2F7E0E0
:1039600084918F010F5F1F4F882321F00E94B311B4
:10397000F801F6CF6AE070E0882777FD8095982FF0
:103980000E9490D19B01AC01F401E652FC4F608192
:103990007181828193810E94F5D01B012C01A701C6
:1039A0009601C701B6010E9415D0AB01BC0192017E
:1039B0008101C50103DB92E0A916B10409F03EC004
:1039C0006091DF057091E0058091E1059091E2053D
:1039D0006B017C01E894F7F8171474F4F7FAF0948B
:1039E000F7F8F0947724739420E030E0A9010E9466
:1039F000F1D218167CF009C07724739420E030E0EF
:103A0000A9010E94EED087FD05C0712C81E0809352
:103A1000881403C081E08093891400E010E09801CD
:103A2000B701A60182E090E0C9DA772019F0109280
:103A3000891402C01092881410928D14F501E85276
:103A4000F84F81E08083F501EB52F84F80838401C9
:103A5000055D194FF8011082118212821382C5018F
:103A6000A7DEC4018557954F0E94D71294012551B6
:103A7000384F7901F401E15EF94F208131814281B3
:103A800053810E9415D0F8012081318142815381F8
:103A90000E9415D0F701608371838283938384DA57
:103AA00094012552384FF70180819181A281B38121
:103AB000F90180839183A283B38326960FB6F8948D
:103AC000DEBF0FBECDBFDF91CF911F910F91FF9051
:103AD000EF90DF90CF90BF90AF909F908F907F90AE
:103AE0005F904F903F902F900895CF92EF92FF926A
:103AF0000F931F93E0903102F09032020091330255
:103B000010913402C0901C0627EF37E043EF57E0D6
:103B10006FEE77E08BEE97E00E94F6781F910F91A1
:103B2000FF90EF90CF900895CF92EF92FF920F9376
:103B30001F93C0901C067B018C0127EE37E043EEFB
:103B400057E06FED77E08BED97E00E94F6781F91DC
:103B50000F91FF90EF90CF90089580E1EBEDF7E0AB
:103B6000ABEEB7E001900D928A95E1F708952F92A0
:103B70003F924F925F926F927F928F929F92AF92FD
:103B8000BF92CF92DF92EF92FF920F931F93CF934A
:103B9000DF9300D01F92CDB7DEB75C014B018A01E5
:103BA0003C832B834090310250903202609033026C
:103BB00070903402FA01C080D180E280F380A701C6
:103BC00096016091F3077091F4078091F507909149
:103BD000F6070E94EED087FF2FC0EB81FC8120808A
:103BE0003180F281F983EB81FC81F381FA8320E05B
:103BF00030E0A901B10189819F2F0E94EED081118F
:103C000005C0212C312C30EC20E402C039812A81FE
:103C1000C101A32FB22F8093310290933202A0935F
:103C20003302B0933402C092F307D092F407E092CB
:103C3000F507F092F60759DFEB81FC81C080D18057
:103C4000E280F38020E030E0A901B601C7010E94C4
:103C5000EED0811105C055E545E535E023E404C00B
:103C60005C2D4D2D3E2D2F2D852F942FA32FB22F60
:103C70008093310290933202A0933302B0933402C6
:103C8000F50180819181A281B3818093EB079093AC
:103C9000EC07A093ED07B093EE07F40180819181CA
:103CA000A281B3818093EF079093F007A093F1076F
:103CB000B093F2071ADFF801C080D180E280F38070
:103CC000A70196016091F3077091F4078091F507C1
:103CD0009091F6070E94F1D2181664F5EB81FC81F1
:103CE000B08001811281A38020E030E0A9016B2D1A
:103CF000702F812F9A2D0E94EED0811105C0B12C1A
:103D000000E010EC20E401C02A2D8B2D902FA12F74
:103D1000B22F8093310290933202A0933302B0937A
:103D20003402C092F307D092F407E092F507F092C4
:103D3000F607DBDE0E946D8C409231025092320217
:103D400060923302709234020F900F900F900F9098
:103D5000DF91CF911F910F91FF90EF90DF90CF9067
:103D6000BF90AF909F908F907F906F905F904F909B
:103D70003F902F9008959B01AC016FEE77E08BEEA2
:103D800097E0F5CECF92DF92EF92FF920F931F93C1
:103D9000CF93DF9306EDE02E03E0F02E0BED17E05E
:103DA000CBEED7E088E3C82E86E0D82EF7018191CC
:103DB0007F01B3DC8823C9F0F7DBF60120812111F4
:103DC00004C020911B06222329F0288139814A81D1
:103DD0005B8103C020E030E0A9010E9415D0F8010A
:103DE000608371838283938309C088819981AA81CA
:103DF000BB81F80180839183A283B3830C5F1F4F43
:103E00002496FFEFCF1ADF0A8AEDE81683E0F80662
:103E100069F686E482DC8823B9F0C6DB20E030E076
:103E2000A9010E94F1D218167CF4BEDB20E030E03C
:103E300040E752E40E94F5D0609331027093320261
:103E40008093330290933402DF91CF911F910F91B1
:103E5000FF90EF90DF90CF900895CF93DF93E7EB43
:103E6000FAE08491EF012196882321F00E94B3119A
:103E7000FE01F7CF60914806709149068CE997E002
:103E80000E94D01482E20E94B3118AE0DF91CF91A8
:103E90000C94B311CF93DF938C9A80918D0A882371
:103EA000E9F0E0E5F7E06491EF01662359F0772748
:103EB00067FD70958FE29CE00E94CA132196FE0177
:103EC0006491F3CF6DE070E08FE29CE00E94CA1332
:103ED0006AE070E08FE29CE00E94CA13809189152D
:103EE0008823D9F10E94C0708091F00E9091F10E5C
:103EF000A091F20EB091F30E85369105A105B105A2
:103F00005CF00597A109B1098093F00E9093F10E32
:103F1000A093F20EB093F30E4091F00E5091F10E7B
:103F20006091F20E7091F30E40937A0A50937B0ADF
:103F300060937C0A70937D0A89EC99E00E94DF50BF
:103F400081E080932E0C8093900A1092891582EB69
:103F500090E090931E0680931D06669B0DC081E045
:103F60008093910A41E050E067E373E1809136026B
:103F7000DF91CF910C9411C6DF91CF910895EF920C
:103F8000FF920F931F93CF93DF9300D01F92CDB773
:103F9000DEB70E946D8C8091310290913202A09127
:103FA0003302B091340280933E0690933F06A09373
:103FB0004006B093410680912F0290913002909379
:103FC0003D0680933C0684E690E090933002809317
:103FD0002F020E94D113EE24E394E092390288E587
:103FE0009CDBF82E89E599DB182F8AE596DB082FF4
:103FF000F11005C0111107C0982F9E2505C011238F
:1040000011F0982F01C090E09093060280E1EBEE52
:10401000F7E0ABEDB7E001900D928A95E1F79111D1
:1040200004C0F11002C01123B1F120E030E040E8FB
:104030005FE3609127067091280680912906909190
:104040002A060E9415D02091330630913406409103
:104050003506509136060E9415D06093E3077093A1
:10406000E4078093E5079093E6072091F3073091EA
:10407000F4074091F5075091F6070E94F1D2181607
:1040800054F419821A821B821C82BE016F5F7F4F1B
:1040900083EE97E070DE80910602811102C0FF205E
:1040A00019F080E090E0D1DB80910602811102C01E
:1040B000112319F081E090E0C8DB809106028111A4
:1040C00002C0002319F082E090E0BFDB0E94D41709
:1040D00080910B0F8093390280913E0690913F06AC
:1040E000A0914006B0914106809331029093320234
:1040F000A0933302B093340280913C0690913D0628
:104100009093300280932F020E94D1130E94DD12FF
:104110000F900F900F900F90DF91CF911F910F9103
:10412000FF90EF9008958F929F92AF92BF92CF929F
:10413000DF92EF92FF920F931F93CF93DF9300D004
:104140001F92CDB7DEB785E4E8DAB82E811102C040
:104150000E946D8C96EDC92E93E0D92E2BE2E22EB3
:1041600026E0F22E0BEE17E0812C912CA12CF6010B
:1041700081916F01D2DA882351F1F80120813181D8
:104180004281538129833A834B835C830DDAF801A2
:10419000608371838283938329813A814B815C811F
:1041A000F3E08F16A1F00E9414D09B01AC01F7013F
:1041B00060817181828193810E9415D0F7016083B3
:1041C000718382839383C401F3DAAA24A394FFEF5B
:1041D0008F1A9F0A84E0E80EF11C0C5F1F4FE4E089
:1041E0008E16910421F6AA2019F00E94D41708C057
:1041F000BB2031F067EF77E083E090E00E947084AD
:104200000F900F900F900F90DF91CF911F910F9112
:10421000FF90EF90DF90CF90BF90AF909F908F90E6
:104220000C94DD120F931F93CF93DF93CDB7DEB7BE
:1042300069970FB6F894DEBF0FBECDBF82E096E05F
:104240000E94F38D6E8B7F8B888F998FBE016F5F7D
:104250007F4FCE0146960E94E31360E0CE010196A7
:104260000E94E49FE7EBFAE084918F010F5F1F4FFC
:10427000882321F00E94B311F801F6CFBE016F5FD1
:104280007F4F87EB96E00E94D0148AE00E94B31122
:1042900080913E0F8823E1F010923E0F6091D5147B
:1042A0007091D614882777FD8095982F0E9490D121
:1042B00020916E0230916F02409170025091710214
:1042C0000E94F1D2181624F41092D6141092D5142C
:1042D00069960FB6F894DEBF0FBECDBFDF91CF91C8
:1042E0001F910F9108951F93CF93DF938091FE0745
:1042F00081110E946D8CC0914606D091470661E203
:1043000070E0CE010E94BCD8009711F0EC0121961C
:1043100080E503DA882341F011E080914406909112
:1043200045068C179D0708F010E08091FF07882351
:1043300079F1212F41E0BE018CEF97E00E94F362FA
:1043400083E5EBD9882339F08091440690914506A6
:104350008C179D0768F08CEF97E00E94135F111196
:1043600017C082E096E0DF91CF911F910C94208ED0
:104370004CD9AB01BC0140937A0A50937B0A6093FD
:104380007C0A70937D0A89EC99E00E94DF50E3CFAC
:10439000DF91CF911F91089588E690E0D2D98111E5
:1043A00035C08091FB0783FD31C083E5B6D98823F2
:1043B00059F1FAD80E945DD17093D6146093D51448
:1043C000F3D820E030E04AEA52E40E94EED018161A
:1043D0004CF082E096E00E94C68D60E089E696E0AF
:1043E0000E9428A0E1D82091DD143091DE14409184
:1043F000DF145091E0140E94F1D218162CF460E002
:104400008EE596E00E9428A00C9459850895CF93DC
:10441000DF93E8E9F7E08491EF012196882321F00A
:104420000E94B311FE01F7CF6091DD147091DE148C
:104430008091DF149091E01441E050E00E94D61288
:10444000E5E9F7E08491EF012196882321F00E94AD
:10445000B311FE01F7CF6091D5147091D61488275F
:1044600077FD8095982F0E9490D141E050E00E9406
:10447000D612E1E9F7E08491EF012196882321F03B
:104480000E94B311FE01F7CF6091D9147091DA1434
:104490008091DB149091DC1441E050E00E94D61230
:1044A000EEE8F7E08491EF012196882321F00E9445
:1044B000B311FE01F7CF6091D1147091D214882707
:1044C00077FD8095982F0E9490D141E050E00E94A6
:1044D000D612EAE8F7E08491EF012196882321F0D3
:1044E0000E94B311FE01F7CF8091E30590E00E9496
:1044F000EE8E6AE070E00E945312E5E8F7E08491E6
:10450000EF012196882321F00E94B311FE01F7CF1D
:104510008FEF9FEF0E94EE8E6AE070E0DF91CF9107
:104520000C945312DF92EF92FF920F931F93CF934D
:10453000DF9383E5F2D8882311F08CD801C080E0A6
:104540008093FB07E7EBFAE08491EF012196882343
:1045500021F00E94B311FE01F7CFE7E5F6E0849168
:10456000EF012196882321F00E94B311FE01F7CFBD
:104570008091FB07882381F10DE416E0C0E0D0E0D4
:1045800020E08091FB0790E00C2E02C09595879566
:104590000A94E2F780FF17C0DD24D394D20E2223C1
:1045A00019F08CE20E94B311F80125913491F901C0
:1045B00084917901FFEFEF1AFF0A882329F00E9406
:1045C000B3119701F4CFD22E21960E5F1F4FC53045
:1045D000D10569F02D2DD5CFE9E4F6E08491EF0106
:1045E0002196882321F00E94B311FE01F7CF8AE0C3
:1045F000DF91CF911F910F91FF90EF90DF900C947E
:10460000B311CF93DF9383E588D88823D9F008D8F6
:10461000C82F8230C0F0EDEBFAE08491EF012196D3
:10462000882321F00E94B311FE01F7CFE3EBF4E001
:104630008491EF012196882309F452C00E94B3119E
:10464000FE01F6CFC0E088E468D88823B9F00E9464
:10465000101BAC2FB0E08A3A910544F09C012F303A
:1046600081E038072CF02EE031E002C02AEA30E089
:10467000AA0FBB1FAB57BA4E2D933C9386E44DD87F
:104680008823A9F00E94101B8F3F910519F014F0A8
:104690008FEF90E0EC2FF0E0EE0FFF1FE358FA4EA3
:1046A0009C0197FF02C020E030E03183208382E448
:1046B00034D88823A9F00E94101BEC2FF0E085303D
:1046C000910534F0883891052CF087E890E002C01D
:1046D00085E090E0EE0FFF1FEF57FA4E9183808345
:1046E000DF91CF91089583E518D8882351F00CD835
:1046F00060930702709308028093090290930A0264
:10470000089588E50AD881110FC089E506D881117E
:104710000BC08AE502D8811107C085E40E948D1B79
:10472000811102C00C94028D0E946D8C88E50E945C
:104730008D1B882319F05F9A1092D50789E50E9496
:104740008D1B882321F08A9A479A1092D6078AE512
:104750000E948D1B882359F09FB7F894809108011F
:104760008160809308019FBF479A1092D70785E424
:104770000E948D1B882311F0129A089508957F924C
:104780008F929F92AF92BF92CF92DF92EF92FF9261
:104790000F931F93CF93DF9306ED13E0C7E9DFE09C
:1047A000712CF80181918F010E948D1B882309F4DF
:1047B0006CC0F3E07F1263C00E94D41A6B017C01CD
:1047C00020E030E040EA51E40E94EED087FF4EC086
:1047D000A70196016091A30F7091A40F8091A50F7E
:1047E0009091A60F0E94F5D04B015C019B01AC019A
:1047F00060914F0F7091500F8091510F9091520F17
:104800000E942CD360934F0F7093500F8093510FE1
:104810009093520FA50194016091B30F7091B40F62
:104820008091B50F9091B60F0E942CD36093B30F77
:104830007093B40F8093B50F9093B60F6091830F70
:104840007091840F8091850F9091860F0E948ED178
:10485000A50194010E942CD30E9462D16093830F22
:104860007093840F8093850F9093860FC092A30F4F
:10487000D092A40FE092A50FF092A60F06C00E945E
:10488000D41A688379838A839B837394249684E003
:10489000781287CFDF91CF911F910F91FF90EF900A
:1048A000DF90CF90BF90AF909F908F907F900C94AF
:1048B000358583E50E948D1B8823D9F00E94D41A88
:1048C000AB01BC0140935B0F50935C0F60935D0F95
:1048D00070935E0F4093530F5093540F6093550F96
:1048E0007093560F8BE894E00E9429158AE00E948D
:1048F000B31180E50E948D1B882399F00E94D41A81
:10490000AB01BC0140935B0F50935C0F60935D0F54
:1049100070935E0F8EE694E00E9429158AE00E9453
:10492000B31182E50E948D1B882399F00E94D41A4E
:10493000AB01BC014093570F5093580F6093590F30
:1049400070935A0F8FE494E00E9429158AE00E9428
:10495000B31184E50E948D1B882399F00E94D41A1C
:10496000AB01BC014093530F5093540F6093550F0C
:104970007093560F81E394E00E9429158AE00C940D
:10498000B311089583E50E948D1B882351F00E9486
:10499000D41A60935F0F7093600F8093610F9093B0
:1049A000620F84E50E948D1B882351F00E94D41A67
:1049B00060933F0F7093400F8093410F9093420F8D
:1049C00082E40E948D1B882351F00E94FA1A6093A2
:1049D000630F7093640F8093650F9093660F88E563
:1049E0000E948D1B882351F00E94D41A6093430FBC
:1049F0007093440F8093450F9093460F89E50E9472
:104A00008D1B882351F00E94D41A6093470F709336
:104A1000480F8093490F90934A0F8AE50E948D1B9F
:104A2000882351F00E94D41A60934B0F70934C0F5F
:104A300080934D0F90934E0F85E40E948D1B882329
:104A400051F00E94D41A60934F0F7093500F8093CF
:104A5000510F9093520F08958F929F92AF92BF92F1
:104A6000CF92DF92EF92FF920F931F93CF93DF933A
:104A700066EDC62E63E0D62E7BEEE72E77E0F72EAE
:104A80000FE116E0C0E0D0E0F60181916F010E94D5
:104A90008D1B882309F10E94D41A4B015C01F80197
:104AA00020813181428153810E9414D09B01AC014D
:104AB000F70160817181828193810E9415D0F70195
:104AC0006083718382839383F80180829182A282C2
:104AD000B382CE010E94D81B2196F4E0EF0EF11CA8
:104AE0000C5F1F4FC330D10579F60E94D417DF91B8
:104AF000CF911F910F91FF90EF90DF90CF90BF90DB
:104B0000AF909F908F900C94DD12CF93DF93E7EBE3
:104B1000FAE08491EF012196882321F00E94B311DD
:104B2000FE01F7CF83E50E948D1B882321F00E94B0
:104B3000591B80932402EFEFF3E08491EF0121965B
:104B4000882321F00E94B311FE01F7CF8091240247
:104B5000882319F0EBEFF3E002C0E7EFF3E0849174
:104B6000EF012196882321F00E94B311FE01F7CFB7
:104B7000EFEEF3E08491EF012196882321F00E946B
:104B8000B311FE01F7CF40911802509119026091C4
:104B90001A0270911B028DEE93E00E94291540913C
:104BA0001C0250911D0260911E0270911F028AEE3C
:104BB00093E00E94291540912002509121026091BA
:104BC00022027091230287EE93E00E942915EFEDF7
:104BD000F3E08491EF012196882321F00E94B31124
:104BE000FE01F7CF40910C0250910D0260910E0230
:104BF00070910F028DED93E00E94291540911002F3
:104C00005091110260911202709113028AED93E0AB
:104C10000E942915409114025091150260911602CC
:104C20007091170287ED93E00E9429158AE0DF91C9
:104C3000CF910C94B311CF92DF92EF92FF92CF936A
:104C4000DF9383E50E948D1B882321F00E94101BB7
:104C5000EC0102C0CEE6D0E080E50E948D1B8823E7
:104C600019F00E94101B02C088EE93E06C01EE2444
:104C7000D7FCE094FE2C1C161D06A4F420E030E0C6
:104C8000A901BE018FE10E9472CCC701B6010E944A
:104C900053C88FE1DF91CF91FF90EF90DF90CF90DD
:104CA0000C9493CFC701B601DF91CF91FF90EF90A5
:104CB000DF90CF900C9453C8CF93DF9385E40E948C
:104CC0008D1B811110C080E50E948D1B882399F0F7
:104CD0000E94D41A60939002709391028093920282
:104CE0009093930208C00E94101B181619065CF7D7
:104CF000EDEBFAE06FC089E40E948D1B882381F000
:104D00000E94D41A2CE933E549E45EE30E942CD3D7
:104D100060938C0270938D0280938E0290938F0229
:104D200084E40E948D1B882381F00E94D41A2CE910
:104D300033E549E45EE30E94F5D060938802709306
:104D4000890280938A0290938B020E94ED8EE7EB9A
:104D5000FAE08491EF012196882321F00E94B3119B
:104D6000FE01F7CF40919002509191026091920222
:104D70007091930283ED93E00E9429152CE933E5AD
:104D800049E45EE360918C0270918D0280918E0205
:104D900090918F020E94F5D0AB01BC018FEC93E0A3
:104DA0000E9445152CE933E549E45EE360918802F1
:104DB0007091890280918A0290918B020E942CD37B
:104DC000AB01BC018BEC93E00E94451510C00E9422
:104DD000B311FE018491EF0121968111F8CFCCE54A
:104DE000D3E08991882319F00E94B311FACF8AE0A9
:104DF000DF91CF910C94B311CF93DF9383E50E94A1
:104E00008D1BC82F8823A1F00E94D41A60938402BE
:104E1000709385028093860290938702D1E020E010
:104E200030E0A9010E94EED08111D0E0D093CE14E1
:104E300080E50E948D1B8823B1F020E030E0A901BD
:104E40006091840270918502809186029091870220
:104E50000E94EED0882319F00E94591B01C081E006
:104E60008093CE1439C0C11137C0E7EBFAE08491CA
:104E7000EF012196882321F00E94B311FE01F7CFA4
:104E80008091CE14882319F066E474E002C06DE6C8
:104E900073E088EB93E00E94D01420E030E040E023
:104EA0005FE3609184027091850280918602909107
:104EB00087020E9415D00E945DD187EA93E00E948C
:104EC000F614E3EAF3E08491EF012196882321F0C0
:104ED0000E94B311FE01F7CFDF91CF910895EF92B9
:104EE000FF920F93CF93DF9385E40E948D1B88235D
:104EF00021F00E94101BEC0102C0C0E0D0E083E46E
:104F00000E948D1B882321F00E94101B7C0103C08E
:104F1000E5E0EE2EF12C85E50E948D1B882321F023
:104F20000E94591B082F01C000E083E50E948D1BE1
:104F3000882319F00E94D41A06C0D7FD09C060E08A
:104F400070E086E193E4209739F41092E30504C001
:104F500060E070E08CE892E49701AE010E948B92D1
:104F6000DF91CF910F91FF90EF9008952F923F9294
:104F70004F925F926F927F928F929F92AF92BF9269
:104F8000CF92DF92EF92FF920F931F93CF93DF9315
:104F9000CDB7DEB72A970FB6F894DEBF0FBECDBFF0
:104FA00088ED97E098878F83FBEE2F2EF7E03F2E5A
:104FB000EFE1F6E0FE83ED8300E010E08F8198855D
:104FC000885D97409A878987EF81F8858191F88776
:104FD000EF83882309F4A3C0F801E45FFD4F20812B
:104FE000318142815381F801E85EFD4F608171811A
:104FF000828193810E9415D020E030E040E05FE3A1
:105000000E942CD39B01AC01F101608171818281EE
:1050100093810E94F1D2181634F4C8018557954F38
:105020000E94D71203C060E070E0CB01F101408024
:10503000518062807380ED81FE81C080D180E280EA
:10504000F380A70196010E9415D0F801E55DF94FA4
:1050500020813181428153810E9415D09B01AC0196
:10506000C301B2010E9414D04B015C0120E030E08A
:1050700040EA51EC0E94F1D2181664F520E030E0CD
:1050800040EA51E4C501B4010E94EED087FF22C07E
:10509000A5019401C701B6010E9414D04B015C0127
:1050A000A70196010E9414D09B01AC01C301B2017B
:1050B0000E9415D0F1016083718382839383ED8117
:1050C000FE8180829182A282B38289859A850E9424
:1050D000D81B25C0EDEBFAE084918F010F5F1F4FC5
:1050E000882321F00E94B311F801F6CFE5E8F3E040
:1050F00084918F010F5F1F4F882321F00E94B3110D
:10510000F801F6CF87E793E00E949EA088E290E046
:105110009A83898388EC90E09C838B832FC0F4E092
:105120002F0E311C0C5F1F4F8D819E8104969E8334
:105130008D830C30110509F041CF0E94D4170E94D5
:10514000DD1260E087E693E00E9428A083E992E008
:105150009A83898308EC10E01C830B83AE014F5FB8
:105160005F4FBE016D5F7F4F84EE95E00E94971404
:105170008AEB92E09A8389831C830B83AE014F5F95
:105180005F4FBE016D5F7F4F84EE95E00E949714E4
:105190002A960FB6F894DEBF0FBECDBFDF91CF9138
:1051A0001F910F91FF90EF90DF90CF90BF90AF9045
:1051B0009F908F907F906F905F904F903F902F9037
:1051C0000895CF93DF9380931C06E7EBFAE0849178
:1051D000EF012196882321F00E94B311FE01F7CF41
:1051E00060911C0670E083E797E00E94F6148AE065
:1051F000DF91CF910C94B311CF93DF930E94D11321
:10520000E0914C06F0E0E153FA4F8081882381F071
:10521000EBE5F3E08491EF012196882321F00E94D1
:10522000B311FE01F7CF8AE0DF91CF910C94B31157
:10523000DF91CF910895CF93DF930E94AB11EEE5FC
:10524000F3E08491EF012196882321F00E94B311AD
:10525000FE01F7CF6091CD077091CE078091CF0707
:105260009091D0076F5F7F4F8F4F9F4F4AE050E084
:105270000E9449128AE00E94B311DF91CF91BCCF06
:10528000EF92FF920F931F93CF93DF931F92CDB7AF
:10529000DEB7082F162FEDEBFAE084917F012FEF98
:1052A000E21AF20A882331F099830E94B311F701C0
:1052B0009981F3CFE02FF92F84917F019FEFE91AB5
:1052C000F90A882321F00E94B311F701F5CF60910C
:1052D000CD077091CE078091CF079091D0074AE01B
:1052E00050E00E9449128AE00E94B3111111A3DF1D
:1052F00010921906109218060F90DF91CF911F910E
:105300000F91FF90EF900895CF92DF92EF92FF926E
:10531000CF93DF93EC01C0901802D0901902E09077
:105320001A02F0901B02A7019601688179818A8197
:105330009B810E94EED087FF04C0C882D982EA8296
:10534000FB82C0901C02D0901D02E0901E02F090E3
:105350001F02A70196016C817D818E819F810E9431
:10536000EED087FF04C0CC82DD82EE82FF82C09047
:105370002002D0902102E0902202F0902302A701A7
:105380009601688579858A859B850E94EED087FF86
:1053900004C0C886D986EA86FB86C0900C02D090ED
:1053A0000D02E0900E02F0900F02A70196016881B5
:1053B00079818A819B810E94F1D2181624F4C882D7
:1053C000D982EA82FB82C0901002D0901102E09054
:1053D0001202F0901302A70196016C817D818E81EB
:1053E0009F810E94F1D2181624F4CC82DD82EE82D5
:1053F000FF82C0901402D0901502E0901602F09047
:105400001702A7019601688579858A859B850E9488
:10541000F1D2181624F4C886D986EA86FB86DF9175
:10542000CF91FF90EF90DF90CF90089580E090E0D3
:105430000E94EC8C6093D3057093D4058093D505BE
:105440009093D60581E090E00E94EC8C6093D705A4
:105450007093D8058093D9059093DA0582E090E0A7
:105460000E94EC8C6093DB057093DC058093DD0576
:105470009093DE050895CF93DF93EC01D7DFC43618
:10548000D10551F48CE0E3EDF5E0ABEEB7E001902F
:105490000D928A95E1F711C0CC0FDD1FCC0FDD1FF7
:1054A000FE01E551F84FCD52DA4F88819981AA81EA
:1054B000BB8180839183A283B383DF91CF910895D1
:1054C0000E94058D0E946D8C84E690E0D4DF0C94E0
:1054D000D417CF92DF92EF92FF928BED97E014DF1B
:1054E0000E94D1138091FB0783FD97C0C090E7070E
:1054F000D090E807E090E907F090EA072091F707DD
:105500003091F8074091F9075091FA07C701B601A9
:105510000E94EED0882309F480C08091CE148111BE
:1055200036C02091840230918502409186025091CC
:1055300087026091DD147091DE148091DF149091E8
:10554000E0140E94EED087FF22C0C092F707D092ED
:10555000F807E092F907F092FA07E7EBFAE0849196
:105560007F019FEFE91AF90A882321F00E94B31105
:10557000F701F5CFE0E4F3E084917F019FEFE91AB2
:10558000F90A882321F00E94B311F701F5CFC090EA
:10559000E707D090E807E090E907F090EA0720914C
:1055A000F7073091F8074091F9075091FA07C701C2
:1055B000B6010E9414D00E945DD197FF07C090955C
:1055C0008095709561957F4F8F4F9F4F693C710516
:1055D0008105910514F1C092F707D092F807E09287
:1055E000F907F092FA07E7EBFAE084917F019FEF69
:1055F000E91AF90A882321F00E94B311F701F5CFC7
:10560000E1E2F3E084917F019FEFE91AF90A882330
:1056100021F00E94B311F701F5CF2091DB07309103
:10562000DC074091DD075091DE076091EB07709138
:10563000EC078091ED079091EE070E94EED081116A
:105640001DC02091DF073091E0074091E1075091A4
:10565000E2076091EF077091F0078091F107909158
:10566000F2070E94EED0811109C060913102709161
:10567000320280913302909134021AC060912F025D
:1056800070913002882777FD8095982F0E9490D1E5
:105690002091310230913202409133025091340214
:1056A0000E942CD32AE037ED43E25CE30E942CD326
:1056B0000E94941DFF90EF90DF90CF900C94AD1D51
:1056C000CF92DF92EF92FF920F931F930E9424C814
:1056D000009148051091490520914A0530914B05EC
:1056E0006B017C01C01AD10AE20AF30AF7FC55C02B
:1056F0008B019C010C53164F2F4F3F4F00934805D1
:105700001093490520934A0530934B054F9B3CC0AD
:105710007A9B3AC02091060120FF36C02091D01418
:10572000211132C0029B30C0009144051091450503
:1057300020914605309147050115110521053105D8
:1057400099F0DC01CB01801B910BA20BB30B8056AF
:105750009A4EA109B1098827B7FD83959927AA27F1
:10576000BB27182F119501C010E0612F87E00E9420
:1057700048CA612F70E087E01F910F91FF90EF9072
:10578000DF90CF900C94F7C8609344057093450563
:105790008093460590934705C7CF1F910F91FF90C7
:1057A000EF90DF90CF900895CF92DF92EF92FF922B
:1057B0006B017C0180913706882351F120E030E0B5
:1057C000A901C701B6010E94EED0882309F12BED93
:1057D0003FE049E450E4C701B6010E942CD320E029
:1057E00030E040E05FE30E942CD3A70196010E94C5
:1057F0002CD320E030E040E05FE30E942CD39B01FB
:10580000AC0160E070E080E89FE30E94F5D004C046
:1058100060E070E080E89FE3FF90EF90DF90CF9032
:1058200008956091290270912A0280912B02909133
:105830002C02BADF60932502709326028093270220
:10584000909328020895CF93DF9388EC90E00E9414
:10585000A11B811142C084E40E948D1B8823E9F1C1
:105860000E94D41AC1E020E030E0A9010E94EED0ED
:10587000811101C0C0E0C0933706CC2359F1C0911B
:10588000E305D0E00E94D41AFE01EE0FFF1FEE0FD9
:10589000FF1FE75DFD4F608371838283938320E068
:1058A00030E0A9016091290270912A0280912B02B7
:1058B00090912C020E94EED081110CC080E090E00B
:1058C000A0EEBFE38093290290932A02A0932B02BB
:1058D000B0932C02DF91CF91A4CFDF91CF910895A7
:1058E0005F988A9847989FB7F894E8E0F1E0808144
:1058F0008E7F80839FBF4798129808955F9A109279
:10590000D5078A9A479A1092D6079FB7F894E8E08D
:10591000F1E08081816080839FBF479A1092D70712
:10592000129A0895EC01EDEBFAE084918F010F5F7C
:105930001F4F882321F00E94B311F801F6CFEFEE3C
:10594000F2E084918F010F5F1F4F882321F00E94A6
:10595000B311F801F6CFCE010E9465A164EF71E0AA
:1059600080E090E00E9453C8F8940E946A92C6DFDB
:10597000FFCF8F929F92AF92BF92DF92EF92FF92F2
:105980000F931F93CF93DF9380914A06843008F0E2
:105990002DC10E94A111882309F428C10E948A11F7
:1059A00020911806309119068A3019F08D3009F0CF
:1059B000F2C01092AE052115310531F3F901E25B19
:1059C000FA4F108210921906109218068EE495E094
:1059D0007C01FC01208101962032D1F3E7012E34B5
:1059E00011F0E12CF12C6AE270E0CE010E94BCD8EB
:1059F0008C01E114F10409F474C065E179E0CE0191
:105A00000E946ED8DD24D394892B11F4D12C09C0C7
:105A10006EE470E0CE0104960E94BCD8009709F0B5
:105A20007C014AE050E060E070E0C70101960E940E
:105A3000F5D56093D1077093D2078093D3079093E5
:105A4000D4078090CD079090CE07A090CF07B0905C
:105A5000D007FFEF8F1A9F0AAF0ABF0A68157905B2
:105A60008A059B0531F0D11004C061E082EE98E018
:105A70003DC00115110501F180E0F12CFE01E80F98
:105A8000F11D90819A3219F08F5FF926F7CF4AE025
:105A900050E060E070E0C80101960E94F5D50F2D3E
:105AA00010E020E030E0601771078207930741F0B3
:105AB00061E083EC98E01AC061E089E998E016C0E3
:105AC0008091D1079091D207A091D307B091D407CC
:105AD0008093CD079093CE07A093CF07B093D007C4
